:020000040800F2
:100000000000022011390008E52C0008ED2C000842
:10001000F52C0008FD2C0008052D0008000000004C
:100020000000000000000000000000000D2D00088E
:100030001B2D000800000000292D0008372D0008A6
:100040006139000861390008613900086139000828
:100050006139000861390008613900086139000818
:100060006139000861390008613900086139000808
:1000700061390008613900086139000861390008F8
:10008000452D000861390008613900086139000810
:1000900061390008613900086139000861390008D8
:1000A00061390008613900086139000861390008C8
:1000B00061390008613900086139000861390008B8
:1000C00061390008613900086139000861390008A8
:1000D0006139000861390008592D000861390008AC
:1000E0006139000861390008613900086139000888
:1000F0006139000861390008613900086139000878
:100100006139000861390008613900086139000867
:100110006139000861390008613900086139000857
:100120006139000861390008613900086139000847
:100130006139000861390008613900086139000837
:100140006139000861390008613900086139000827
:100150006139000861390008613900086139000817
:100160006139000861390008613900086139000807
:100170006139000861390008613900080000000099
:08018000613900086139000833
:10019000034613F8012B002AFBD1181A01387047C7
:1001A00001F0FF01102A2BDB10F0070F08D010F828
:1001B000013B013A8B422DD010F0070F42B3F6D12C
:1001C000F0B441EA012141EA014122F007047FF045
:1001D00000070023F0E80256083C85EA010586EA9C
:1001E000010685FA47F5A3FA87F586FA47F6A5FAD8
:1001F00087F68EB9EED1F0BC01F0FF0102F00702E4
:1002000032B110F8013B013A83EA010313B1F8D18E
:100210000020704701387047002D06BF354603386F
:10022000073815F0010F07D1013015F4807F02BFA8
:10023000013015F4C03F0130F0BC0138704700BFF9
:1002400081F0004102E000BF83F0004330B54FEA87
:1002500041044FEA430594EA050F08BF90EA020FF4
:100260001FBF54EA000C55EA020C7FEA645C7FEA87
:10027000655C00F0E2804FEA5454D4EB5555B8BFAA
:100280006D420CDD2C4480EA020281EA030382EA1B
:10029000000083EA010180EA020281EA0303362DAD
:1002A00088BF30BD11F0004F4FEA01314FF4801C80
:1002B0004CEA113102D0404261EB410113F0004F92
:1002C0004FEA03334CEA133302D0524263EB430349
:1002D00094EA050F00F0A780A4F10104D5F1200EE7
:1002E0000DDB02FA0EFC22FA05F2801841F1000142
:1002F00003FA0EF2801843FA05F359410EE0A5F116
:1003000020050EF1200E012A03FA0EFC28BF4CF046
:10031000020C43FA05F3C01851EBE37101F00045FC
:1003200007D54FF0000EDCF1000C7EEB00006EEB09
:100330000101B1F5801F1BD3B1F5001F0CD3490893
:100340005FEA30004FEA3C0C04F101044FEA4452EA
:1003500012F5800F80F09A80BCF1004F08BF5FEA71
:10036000500C50F1000041EB045141EA050130BD51
:100370005FEA4C0C404141EB0101013C28BFB1F563
:10038000801FE9D291F0000F04BF01460020B1FAAE
:1003900081F308BF2033A3F10B03B3F120020CDA81
:1003A0000C3208DD02F1140CC2F10C0201FA0CF05F
:1003B00021FA02F10CE002F11402D8BFC2F1200CC4
:1003C00001FA02F120FA0CFCDCBF41EA0C0190407A
:1003D000E41AA2BF01EB0451294330BD6FEA0404C3
:1003E0001F3C1CDA0C340EDC04F11404C4F12002AE
:1003F00020FA04F001FA02F340EA030021FA04F3C0
:1004000045EA030130BDC4F10C04C4F1200220FA16
:1004100002F001FA04F340EA0300294630BD21FA54
:1004200004F0294630BD94F0000F83F4801306BF1A
:1004300081F480110134013D4EE77FEA645C18BF0E
:100440007FEA655C29D094EA050F08BF90EA020FA5
:1004500005D054EA000C04BF1946104630BD91EA9D
:10046000030F1EBF0021002030BD5FEA545C05D1A0
:100470004000494128BF41F0004130BD14F58004DF
:100480003CBF01F5801130BD01F0004545F0FE4153
:1004900041F470014FF0000030BD7FEA645C1ABF88
:1004A000194610467FEA655C1CBF0B46024650EABF
:1004B000013406BF52EA033591EA030F41F40021EB
:1004C00030BD00BF90F0000F04BF0021704730B571
:1004D0004FF4806404F132044FF000054FF0000146
:1004E00050E700BF90F0000F04BF0021704730B507
:1004F0004FF4806404F1320410F0004548BF4042DC
:100500004FF000013EE700BF42004FEAE2014FEA30
:1005100031014FEA02701FBF12F07F4393F07F4F0B
:1005200081F06051704732F07F4208BF704793F00E
:100530007F4F04BF41F40021704730B54FF4607421
:1005400001F0004521F000411CE700BF50EA010224
:1005500008BF704730B54FF000050AE050EA0102CD
:1005600008BF704730B511F0004502D5404261EB3D
:1005700041014FF4806404F132045FEA915C3FF47E
:10058000D8AE4FF003025FEADC0C18BF03325FEA1B
:10059000DC0C18BF033202EBDC02C2F1200300FACC
:1005A00003FC20FA02F001FA03FE40EA0E0021FAF1
:1005B00002F11444BDE600BF70B54FF0FF0C4CF4DF
:1005C000E06C1CEA11541DBF1CEA135594EA0C0F91
:1005D00095EA0C0F00F0DEF82C4481EA030621EACC
:1005E0004C5123EA4C5350EA013518BF52EA033507
:1005F00041F4801143F4801338D0A0FB02CE4FF0B9
:100600000005E1FB02E506F00042E0FB03E54FF0E8
:100610000006E1FB03569CF0000F18BF4EF0010EE0
:10062000A4F1FF04B6F5007F64F5407404D25FEADC
:100630004E0E6D4146EB060642EAC62141EA55518F
:100640004FEAC52040EA5E504FEACE2EB4F1FD0CD1
:1006500088BFBCF5E06F1ED8BEF1004F08BF5FEA4F
:10066000500E50F1000041EB045170BD06F0004601
:1006700046EA010140EA020081EA0301B4EB5C04AE
:10068000C2BFD4EB0C0541EA045170BD41F48011A6
:100690004FF0000E013C00F3AB8014F1360FDEBFCB
:1006A000002001F0004170BDC4F10004203C35DAA7
:1006B0000C341BDC04F11404C4F1200500FA05F32A
:1006C00020FA04F001FA05F240EA020001F00042CB
:1006D00021F0004110EBD37021FA04F642EB060141
:1006E0005EEA430E08BF20EAD37070BDC4F10C046B
:1006F000C4F1200500FA04F320FA05F001FA04F22F
:1007000040EA020001F0004110EBD37041F100011A
:100710005EEA430E08BF20EAD37070BDC4F1200525
:1007200000FA05F24EEA020E20FA04F301FA05F28D
:1007300043EA020321FA04F001F0004121FA04F235
:1007400020EA020000EBD3705EEA430E08BF20EA05
:10075000D37070BD94F0000F0FD101F0004640003F
:1007600041EB010111F4801F08BF013CF7D041EAC1
:10077000060195F0000F18BF704703F000465200C5
:1007800043EB030313F4801F08BF013DF7D043EA96
:100790000603704794EA0C0F0CEA135518BF95EA4C
:1007A0000C0F0CD050EA410618BF52EA4306D1D1D3
:1007B00081EA030101F000414FF0000070BD50EAF2
:1007C000410606BF1046194652EA430619D094EA7C
:1007D0000C0F02D150EA013613D195EA0C0F05D166
:1007E00052EA03361CBF104619460AD181EA0301BA
:1007F00001F0004141F0FE4141F470014FF0000072
:1008000070BD41F0FE4141F4780170BD70B54FF00C
:10081000FF0C4CF4E06C1CEA11541DBF1CEA13558C
:1008200094EA0C0F95EA0C0F00F0A7F8A4EB05046E
:1008300081EA030E52EA03354FEA013100F0888065
:100840004FEA03334FF0805545EA131343EA12632E
:100850004FEA022245EA111545EA10654FEA0026E3
:100860000EF000419D4208BF964244F1FD0404F59C
:10087000407402D25B084FEA3202B61A65EB0305F8
:100880005B084FEA32024FF480104FF4002CB6EBB5
:10089000020E75EB030E22BFB61A754640EA0C0035
:1008A0005B084FEA3202B6EB020E75EB030E22BF75
:1008B000B61A754640EA5C005B084FEA3202B6EBB6
:1008C000020E75EB030E22BFB61A754640EA9C0075
:1008D0005B084FEA3202B6EB020E75EB030E22BF45
:1008E000B61A754640EADC0055EA060E18D04FEA03
:1008F000051545EA16754FEA06164FEAC30343EAA3
:1009000052734FEAC2025FEA1C1CC0D111F4801F6F
:100910000BD141EA00014FF000004FF0004CB6E768
:1009200011F4801F04BF01430020B4F1FD0C88BF07
:10093000BCF5E06F3FF6AFAEB5EB030C04BFB6EB12
:10094000020C5FEA500C50F1000041EB045170BD05
:100950000EF0004E4EEA113114EB5C04C2BFD4EB32
:100960000C0541EA045170BD41F480114FF0000EB6
:10097000013C90E645EA060E8DE60CEA135594EA32
:100980000C0F08BF95EA0C0F3FF43BAF94EA0C0F35
:100990000AD150EA01347FF434AF95EA0C0F7FF4AA
:1009A00025AF104619462CE795EA0C0F06D152EAFE
:1009B00003353FF4FDAE1046194622E750EA4106E2
:1009C00018BF52EA43067FF4C5AE50EA41047FF4F3
:1009D0000DAF52EA43057FF4EBAE12E74FF0FF3C58
:1009E00006E000BF4FF0010C02E000BF4FF0010C29
:1009F0004DF804CD4FEA410C7FEA6C5C4FEA430CA2
:100A000018BF7FEA6C5C1BD001B050EA410C0CBFF0
:100A100052EA430C91EA030F02BF90EA020F002052
:100A2000704710F1000F91EA030F58BF994208BFB9
:100A300090422CBFD8176FEAE37040F00100704776
:100A40004FEA410C7FEA6C5C02D150EA013C07D1CD
:100A50004FEA430C7FEA6C5CD6D152EA033CD3D018
:100A60005DF8040B704700BF8446104662468C4612
:100A70001946634600E000BF01B5FFF7B7FF002845
:100A800048BF10F1000F01BD4DF808EDFFF7F4FF6E
:100A90000CBF012000205DF808FB00BF4DF808EDF9
:100AA000FFF7EAFF34BF012000205DF808FB00BF1C
:100AB0004DF808EDFFF7E0FF94BF012000205DF83E
:100AC00008FB00BF4DF808EDFFF7CEFF94BF0120F3
:100AD00000205DF808FB00BF4DF808EDFFF7C4FFEC
:100AE00034BF012000205DF808FB00BF4FEA410C35
:100AF0007FEA6C5C02D150EA013C0AD14FEA430C18
:100B00007FEA6C5C02D152EA033C02D14FF0000054
:100B100070474FF0010070474A0011D212F50012E1
:100B200011D20DD56FF47873B3EB62520ED44FEA45
:100B3000C12343F0004343EA505323FA02F07047C5
:100B40004FF00000704750EA013002D14FF0FF3003
:100B500070474FF0000070474FEA4102B2F1E043A6
:100B600024BFB3F5001CDCF1FE5C0DD901F0004C94
:100B70004FEAC0024CEA5070B2F1004F40EB8300E4
:100B800008BF20F00100704711F0804F21D113F110
:100B90003872BCBF01F00040704741F480114FEA49
:100BA0005252C2F11802C2F1200C10FA0CF320FAD2
:100BB00002F018BF40F001004FEAC1234FEAD323EF
:100BC00003FA0CFC40EA0C0023FA02F34FEA430359
:100BD000CCE77FEA625307D150EA01331EBF4FF0E2
:100BE000FE4040F44000704701F0004040F0FE40FD
:100BF00040F40000704700BF53B94AB9002908BF4C
:100C000000281CBF4FF0FF314FF0FF3000F00CB850
:100C1000ADF1080C6DE904CE09F05CFEDDF804E0EE
:100C2000DDE9022304B07047704700BF0348044B5E
:100C3000834202D0034B03B118477047D80100200C
:100C4000D8010020000000000548064B1B1AD90FF0
:100C500001EBA301491002D0034B03B118477047C1
:100C6000D8010020D80100200000000010B5064C7B
:100C7000237843B9FFF7DAFF044B13B10448AFF30D
:100C800000800123237010BDD80100200000000067
:100C9000CCAB000808B5054B1BB105490548AFF3BF
:100CA0000080BDE80840FFF7CFBF00BF0000000094
:100CB000DC010020CCAB000880B582B000AF4FF45F
:100CC00080720F490F4805F0F3FB0346FB71FB7977
:100CD000002B0DD10B4BDB6B1B681A68094BDB6BD0
:100CE0001B6822F008021A60074B01221A7002E00A
:100CF000054B00221A70FB7918460837BD4680BDA7
:100D0000440300209C020020B415002080B584B06C
:100D100000AF78607B68002B01D1012359E02F4B95
:100D20001B78002B10D12E4801F064FC0346002BE9
:100D300004D02C4B00221A7001234AE0274B0122D9
:100D40001A70284B00221A700023FB733AE0FB7BD9
:100D5000184602F049FB034683F00103DBB2002B87
:100D60002AD1204B1B78002B09D0FB7B1E4A32F87E
:100D70001320F97B7B6833F811309A421ED0FA7B3E
:100D80007B6833F81230F97B0022154801F0ACFC87
:100D90000346002B07D0114B00221A70114B002282
:100DA0001A70012315E0F97BFB7B7A6832F8111089
:100DB0000D4A22F8131002E000BF00E000BFFB7BE9
:100DC0000133FB73FB7B032BC1D9064B01221A7045
:100DD000002318461037BD4680BD00BFB015002067
:100DE000F4010020B8150020BC15002080B485B0A7
:100DF00000AF87ED010AD7ED017ABBEE0E7AF4EE73
:100E0000C77AF1EE10FA02D51C4B7B600AE0D7EDF1
:100E1000017AB3EE0E7AF4EEC77AF1EE10FA01DD44
:100E2000174B7B60D7ED017AB2EE047A67EE877AD2
:100E3000C7ED037AD7ED037AF5EEC07AF1EE10FA3A
:100E40000BDBD7ED037AB6EE007A77EE877AFDEE0C
:100E5000E77A17EE903A1BB20AE0D7ED037AB6EEC6
:100E6000007A77EEC77AFDEEE77A17EE903A1BB27A
:100E700018461437BD465DF8047B70470000F0C18A
:100E80000000F04190B589B002AFF860B960134638
:100E9000FB80B7F90630002B03DAFB885B429BB27C
:100EA00000E0FB88FB82B7F90630002B01DA10481E
:100EB00000E01048FB8A104AA2FB0323DB089BB228
:100EC0001C46FA8A0C4BA3FB0213D9080B469B0065
:100ED0000B445B00D31A9BB2019300940346074A6C
:100EE000B968F86807F09CFB00BF1C37BD4690BD91
:100EF000E8AB0008ECAB0008CDCCCCCCF0AB0008E4
:100F0000F0B5A7B012AFF8610B46FB76FB69002B7A
:100F100000F0AE80594B1B78DBB2002B40F0A8806C
:100F2000574BD3ED007AB0EE670AFFF75FFF034639
:100F30001A4607F1400309211846FFF7A3FF514B5A
:100F40001B78002B09D0504BB3F9002007F1340374
:100F500009211846FFF796FF06E007F134034B4AD4
:100F60000921184607F05CFB454BD3ED017A07F1E8
:100F70002C03B0EE670A0821184600F0BDFA404B7A
:100F8000D3ED027A07F12403B0EE670A0821184670
:100F900000F0B2FA02F04CFD0146FB7E002B01D1BD
:100FA000012300E000233A4A12781046354A1278AD
:100FB0001446384AB2F90E201546364AB2F90A20CC
:100FC0001646344AB2F90C207A61324AB2F90E2040
:100FD0003A61314A1278FA602E4A1288BA602D4A74
:100FE00052887A602B4A928811927A681092BA6875
:100FF0000F92FA680E923A690D927A690C920B96EA
:1010000007F124020A9207F12C02099207F140022B
:101010000892079507F13402069207F1340205920F
:1010200007F140020492039402900193FB6900933C
:101030000B461A4A4FF40071194807F0F1FAF864A8
:10104000FB6C002B16DDFB6CB3F5007F12D20B4B53
:1010500001221A70FB6C9BB21A461149114805F027
:10106000F1F90346002B06D0044B00221A7002E06F
:1010700000BF00E000BF5437BD46F0BDE9150020B9
:1010800070150020BA150020C8150020F8AB000824
:10109000B715002090150020A415002000AC000812
:1010A000EC1500209C02002080B584B000AFF860F1
:1010B0000B467A60FB72094B1B687A68D31A632B64
:1010C00008D9064A7B681360FB7A1946F868FFF76F
:1010D00017FF00E000BF1037BD4680BDD0150020CF
:1010E000B0B584B000AF78600D4A0E4B14461D4673
:1010F0000FCD0FC42B6823800A4BB3F90E307A68EA
:101100001946094802F09CF80346FB81B7F90E30F6
:101110001946034801F066FF00BF1037BD46B0BD59
:10112000901500207C150020A415002080B5C6B0C5
:1011300000AF002387F81731002387F8163102F03B
:1011400077FCC7F8100133E03A4607F10C0311466B
:10115000184602F0B5FB034683F00103DBB2002B17
:101160000BD0384B1B680133364A1360364B0022D4
:101170001A70012387F816311AE0344B1B680133CB
:10118000324A1360304B01221A70314B07221A7019
:1011900002F04EFCC7F810012E4907F58C73A3F539
:1011A0008C720B4607CA83E80700012387F81731C2
:1011B00007F10C034FF480721946274802F038FA01
:1011C0000346002BC0D197F81731002B28D002F02E
:1011D0002FFCC7F8100121491E4801F031FFD7F854
:1011E0001001FFF77DFF1E48FFF790FD034687F8CB
:1011F0000F311C4A97F80F3113701B4AD7F8103182
:1012000013601A4B01221A70194B00221A7097F8BA
:101210000F31D7F8102119461648FFF745FF0BE0AC
:1012200097F81631002B07D002F002FC03461A464D
:1012300001211148FFF738FF00BF07F58C77BD4645
:1012400080BD00BFD8150020B5150020D4150020A2
:10125000B715002070150020440400207C150020E4
:101260009015002000000020CC150020B1150020B2
:10127000B215002098AD0008A0AD000880B582B07E
:1012800000AF144B9B88FB80134B1B787B7102F0E3
:10129000CFFB03461846FFF723FF0E4B9B88FA88C7
:1012A0009A4204D10C4B1B787A799A420DD00948A6
:1012B000FFF72CFD03463B71084A3B7913703B79DD
:1012C00019460748FFF71CFE00E000BF0837BD467F
:1012D00080BD00BF90150020A41500200000002054
:1012E000B0AD0008B0B582B000AF1D4B1B78002B2D
:1012F00031D01C4B1B78002B2DD102F099FB0246FC
:10130000194B1B681946104602F085F8034683F016
:101310000103DBB2002B1ED1144801F029FE144852
:1013200001F082FF134A114B14461D460FCD0FC426
:101330002B6823800F48FFF7E9FC0346FB710E4A38
:10134000FB791370074B01221A70FB7919460B4881
:10135000FFF7D6FD00E000BF0837BD46B0BD00BFB7
:10136000B1150020B2150020CC1500207C150020FE
:10137000A41500209015002000000020BCAD00083E
:1013800080B500AF0A4B1B78DBB2002B0ED0084BA8
:1013900000221A70074805F0E4F8FFF78DFC0346B9
:1013A000002B04D0024B01221A7000E000BF80BD68
:1013B000E81500209C02002080B485B000AF786062
:1013C0002E4B1B78002B12D12D4B1B687A68D31A39
:1013D000132B4AD92A4A7B6813602A4B9B68294AF7
:1013E00043F080439360254B01221A7040E0254B67
:1013F0001B6803F00203002B39D0224BDB6C9AB23E
:10140000214B1A801D4B00221A701F4B1B881A4655
:1014100040F6E44302FB03F303F2FF721B4BA3FB12
:101420000213D21A52081344DB0ABB60BB689AB29B
:10143000174B1A80164B1B88A3F25E63FB60FB6898
:1014400013F5967F02DA134BFB6006E0FB68B3F5F9
:10145000967F02DD4FF49673FB60FB681AB20E4B69
:101460001A800E4B01221A7002E000BF00E000BF9C
:101470001437BD465DF8047B704700BFB9150020E6
:10148000E415002000200140C415002001011000D7
:10149000C6150020D4FEFFFFC8150020BA15002095
:1014A00080B584B000AF78600D4B1B78002B02D163
:1014B0000C4BFB6008E00C4B1B78002B02D00B4B55
:1014C000FB6001E00A4BFB600A4B1B787A68194607
:1014D000F868FFF7E9FD00BF1037BD4680BD00BFCB
:1014E000B1150020C8AD0008B2150020BCAD000841
:1014F00098AD00080000002080B588B002AFF86009
:10150000B96087ED010AD7ED017AF5EEC07AF1EE08
:1015100010FA03D54FF000037B600BE0D7ED017AA2
:10152000B7EE007AF4EEC77AF1EE10FA02DD4FF072
:101530007E537B60D7ED017A9FED137A67EE877A51
:10154000B6EE007A77EE877AFCEEE77A17EE903AFD
:101550007B617B690D4AA2FB032399097A690B4BD6
:10156000A3FB02039B094FF47A7000FB03F3D31A29
:1015700000930B46064AB968F86807F051F800BFB7
:101580001837BD4680BD00BF00007A44D34D6210BD
:10159000D0AD000890B593B002AF824BD3ED007A86
:1015A000B0EE670AFFF722FC03461A4607F11C0358
:1015B00009211846FFF766FC7B4B1B78002B09D0EE
:1015C0007A4BB3F9002007F1100309211846FFF701
:1015D00059FC06E007F11003754A0921184607F087
:1015E0001FF807F1100307F12800724A162107F0CF
:1015F00017F807F128031A460021002000F026FF03
:1016000007F11C0307F128006B4A162107F008F8C0
:1016100007F128031A460021012000F017FF614B53
:10162000D3ED017A07F10803B0EE670A08211846E6
:10163000FFF762FF614BB3F90A301A4607F108035E
:1016400007F1280000925E4A162106F0E9FF07F133
:1016500028031A460021022000F0F8FE514BD3ED7A
:10166000027A3B46B0EE670A08211846FFF744FFAE
:10167000524BB3F90C301A463B4607F12800009252
:10168000504A162106F0CCFF07F128031A46002124
:10169000032000F0DBFE494BB3F90E301A46474BEE
:1016A0009B8807F1280000931346474A162106F04D
:1016B000B7FF07F128031A460021042000F0C6FEF8
:1016C000394B1B78002B1CD0404B1B88404AA2FB97
:1016D00003239B099BB21C463C4B1B883C4AA2FB44
:1016E000031292094FF47A7101FB02F29B1A9BB22A
:1016F00007F1280000932346364A162106F090FF92
:1017000006E007F12803344A1621184606F088FF40
:1017100007F128031A460021052000F097FE2F4804
:1017200003F014FE0346202B01D12D4C00E02D4C7C
:101730002D4803F00BFE0346202B01D1284B00E07F
:10174000284B07F1280000932346284A162106F06B
:1017500067FF07F128031A460021062000F076FEF5
:10176000234B1B78002B01D01D4A00E01D4A214B62
:101770001B78002B01D01A4B00E01A4B07F1280010
:10178000009313461C4A162106F04AFF07F128036E
:101790001A460021072000F059FE00BF4437BD461D
:1017A00090BD00BF70150020BA150020C81500209C
:1017B000DCAD0008E4AD0008F0AD00089015002095
:1017C000FCAD00080CAE00081CAE0008C6150020D9
:1017D000D34D62102CAE00083CAE0008F40100208E
:1017E00048AE00084CAE00084802002050AE000889
:1017F000B4150020B01500205CAE000880B582B0A2
:1018000000AF78601D4B1B78002B16D11C4B1B685A
:101810007A68D31AB3F57A7F28D3194A7B681360A4
:10182000184800F0A5FD0346002B21D1134B0122DF
:101830001A707B68C83B144A1360134B1B687A68A4
:10184000D31AC72B16D9104A7B68136000F0F2FD3B
:10185000FFF7A0FE00F04CFE0346002B0BD0074B19
:1018600000221A70064A7B68136004E000BF02E0A1
:1018700000BF00E000BF0837BD4680BDB6150020A0
:10188000E015002048020020DC150020B0B500AFB4
:1018900002F068F800F09AF800F00CFA00F0EAF9AB
:1018A00000F0FEF800F060F900F08CF900F0B8F9F3
:1018B000384801F0C4FD384B4FF000021A60364B37
:1018C0004FF000025A60344B4FF000029A603348E8
:1018D00001F04EFB324801F091FC324A2F4B144686
:1018E0001D460FCD0FC42B682380FFF7E5F9034693
:1018F000002B01D000F06CFA02F09AF803462A4A55
:1019000013602A4800F034FD0346002B01D1012268
:1019100000E00022264B1A7002F08AF80346C83B0A
:10192000244A136002F084F80346643B224A1360A1
:1019300002F07EF80346143B204A1360204B01223C
:101940001A701848FFF7E2F903461A461D4B1A7041
:101950001C4B1B7819461C48FFF7D2FAFFF7E6FB31
:10196000FFF78CFCFFF7BEFCFFF70AFD02F060F802
:1019700003461846FFF720FD02F05AF803461846C2
:10198000FFF78EFD02F054F803461846FFF736FFC6
:1019900000BFE3E744040020701500207C15002000
:1019A000A415002090150020E0150020480200201A
:1019B000B6150020DC150020D0150020E41500200D
:1019C000B3150020000000206CAE000880B594B074
:1019D00000AF07F1200330220021184606F09AFEDE
:1019E00007F10C0300221A605A609A60DA601A61EB
:1019F0000023BB60284B1B6C274A43F080531364C1
:101A0000254B1B6C03F08053BB60BB6800237B60DD
:101A1000224B1B68214A43F4804313601F4B1B6811
:101A200003F480437B607B6801233B624FF4803387
:101A30007B620223BB634FF48003FB6304233B649C
:101A4000A8237B640223BB640423FB6407F1200307
:101A5000184604F00FF80346002B01D000F0B8F947
:101A60000F23FB6002233B6100237B614FF4A053F3
:101A7000BB614FF48053FB6107F10C03052118464D
:101A800004F070FA0346002B01D000F0A1F900BF6A
:101A90005037BD4680BD00BF003802400070004096
:101AA00080B588B000AF07F10C0300221A605A60BD
:101AB0009A60DA601A610023BB60274B1B6B264AD1
:101AC00043F001031363244B1B6B03F00103BB6062
:101AD000BB680223FB6003233B6100237B6107F1AA
:101AE0000C0319461D4802F0F3FC00237B601A4BDF
:101AF0005B6C194A43F480735364174B5B6C03F4BB
:101B000080737B607B68164B5B6823F44033144A18
:101B100043F480335360134B00225A60114B4FF44F
:101B200080629A600F4B0022DA600E4B30221A61FD
:101B30000C4B0022DA620B4B00221A63094B012284
:101B40005A63084B9B68074A43F00103936000BF48
:101B50002037BD4680BD00BF003802400000024073
:101B6000002301400020014080B500AF124B134A12
:101B70001A60114B124A5A600F4B00229A600E4BAA
:101B80000022DA600C4B4FF480421A610A4B0022AB
:101B90005A61094B00229A61074B0022DA61064B19
:101BA00000221A62044802F02FFE0346002B01D0E7
:101BB00000F00EF900BF80BDF40100200054004089
:101BC000801A060080B500AF124B134A1A60114B01
:101BD000124A5A600F4B00229A600E4B0022DA60C4
:101BE0000C4B4FF480421A610A4B00225A61094B98
:101BF00000229A61074B0022DA61064B00221A622A
:101C0000044802F001FE0346002B01D000F0E0F88A
:101C100000BF80BD4802002000580040801A060026
:101C200080B500AF114B124A1A60104B4FF4E132ED
:101C30005A600E4B00229A600C4B0022DA600B4B6C
:101C400000221A61094B0C225A61084B00229A614A
:101C5000064B0022DA61054804F0A4FB0346002B82
:101C600001D000F0B5F800BF80BD00BF9C0200208D
:101C70000044004080B582B000AF00237B600C4B75
:101C80001B6B0B4A43F400131363094B1B6B03F4E8
:101C900000137B607B6800220021102001F0D3FF3D
:101CA000102001F0ECFF00BF0837BD4680BD00BF2B
:101CB0000038024080B485B000AF0023FB60174BB2
:101CC0001B6B164A43F080031363144B1B6B03F02A
:101CD0008003FB60FB680023BB60104B1B6B0F4A4B
:101CE00043F0010313630D4B1B6B03F00103BB6057
:101CF000BB6800237B60094B1B6B084A43F002035F
:101D00001363064B1B6B03F002037B607B6800BF11
:101D10001437BD465DF8047B704700BF00380240B1
:101D200080B483B000AF78607B681B68054A93423B
:101D300002D1054B00221A7000BF0C37BD465DF87A
:101D4000047B704700440040E915002080B582B054
:101D500000AF78600B467B807B681B680A4A934221
:101D60000DD17B881A460949094801F079FBFEF735
:101D7000A3FF0346002B02D0064B01221A7000BFBE
:101D80000837BD4680BD00BF00440040440300202A
:101D900044040020E815002080B483B000AF7860D0
:101DA0007B681B68074A934205D1074B00221A70D3
:101DB000064B01221A7000BF0C37BD465DF8047B4C
:101DC000704700BF00440040B4150020E815002013
:101DD00080B400AF72B600BF00BFFDE780B586B02B
:101DE00002AF0346FB7100233B73FB797B73084B07
:101DF0001868084B198807F10C023223009302235C
:101E000002F046FE034618461037BD4680BD00BFAF
:101E1000EC170020F017002090B58BB002AF78606F
:101E20000B467B800023FB8340233B7228E07A88AB
:101E3000FB8BD31ABB83BB8B102B01D91023BB8325
:101E4000FB8B7A68D118BA8B07F108030133184667
:101E500006F003FD0F4B18680F4B1988BB8B01333D
:101E60009BB207F108023224009402F011FE0346EF
:101E7000002B01D0012308E0FA8BBB8B1344FB83BA
:101E8000FA8B7B889A42D2D3002318462437BD466A
:101E900090BD00BFEC170020F017002080B582B085
:101EA00000AF03463960FB7105220021386806F057
:101EB00031FCFB792F2B10D9FB79392B0DD8FB790D
:101EC000A3F1300213469B001344CC4A134405226D
:101ED0001946386806F0C1FC47E2FB79203B382BF5
:101EE00000F2428201A252F823F000BF69230008E9
:101EF0006923000869230008692300086923000892
:101F00006923000869230008692300086923000881
:101F10006923000869230008DD1F00086923000801
:101F2000D11F0008052000082920000869230008A7
:101F30006923000869230008692300086923000851
:101F40006923000869230008692300086923000841
:101F50006923000817200008692300086923000886
:101F60006923000869230008692300086923000821
:101F70005120000879200008A1200008C92000088D
:101F8000F1200008192100084121000869210008FA
:101F90009121000869230008AB210008D321000823
:101FA00069230008012200082922000851220008A4
:101FB0006923000879220008A1220008C92200082C
:101FC000F1220008192300086923000841230008B2
:101FD00005220821386806F09DFBC6E13B6808220F
:101FE0001A703B68013308221A703B6802333E22A4
:101FF0001A703B68033308221A703B6804330822C6
:102000001A70B2E13B68013360221A703B680233F8
:1020100060221A70A9E13B68013336221A703B68CE
:10202000023336221A70A0E13B6820221A703B6806
:10203000013310221A703B68023308221A703B6881
:10204000033304221A703B68043302221A708CE1B5
:102050003B687E221A703B68013311221A703B687C
:10206000023311221A703B68033311221A703B6845
:1020700004337E221A7078E13B687F221A703B6835
:10208000013349221A703B68023349221A703B68B7
:10209000033349221A703B68043336221A7064E114
:1020A0003B683E221A703B68013341221A703B683C
:1020B000023341221A703B68033341221A703B6895
:1020C000043322221A7050E13B687F221A703B6869
:1020D000013341221A703B68023341221A703B6877
:1020E000033322221A703B6804331C221A703CE12D
:1020F0003B687F221A703B68013349221A703B68A3
:10210000023349221A703B68033349221A703B6834
:10211000043341221A7028E13B687F221A703B6821
:10212000013309221A703B68023309221A703B6896
:10213000033309221A703B68043301221A7014E138
:102140003B683E221A703B68013341221A703B689B
:10215000023349221A703B68033349221A703B68E4
:1021600004337A221A7000E13B687F221A703B68C0
:10217000013308221A703B68023308221A703B6848
:10218000033308221A703B6804337F221A70ECE094
:102190003B68013341221A703B6802337F221A7078
:1021A0003B68033341221A70DFE03B687F221A70DC
:1021B0003B68013308221A703B68023314221A70FC
:1021C0003B68033322221A703B68043341221A70A1
:1021D000CBE03B687F221A703B68013340221A70C3
:1021E0003B68023340221A703B68033340221A7066
:1021F0003B68043340221A70B7E000BF98AE000875
:102200003B687F221A703B68013302221A703B68D8
:10221000023304221A703B68033308221A703B68A9
:1022200004337F221A70A0E03B683E221A703B689C
:10223000013341221A703B68023341221A703B6815
:10224000033341221A703B6804333E221A708CE03B
:102250003B687F221A703B68013309221A703B6881
:10226000023309221A703B68033309221A703B6853
:10227000043306221A7078E03B687F221A703B68AC
:10228000013309221A703B68023319221A703B6825
:10229000033329221A703B68043346221A7064E023
:1022A0003B6846221A703B68013349221A703B682A
:1022B000023349221A703B68033349221A703B6883
:1022C000043331221A7050E03B6801221A703B68D7
:1022D000013301221A703B6802337F221A703B6877
:1022E000033301221A703B68043301221A703CE068
:1022F0003B683F221A703B68013340221A703B68EA
:10230000023340221A703B68033340221A703B6844
:1023100004333F221A7028E03B681F221A703B6882
:10232000013320221A703B68023340221A703B6846
:10233000033320221A703B6804331F221A7014E002
:102340003B6863221A703B68013314221A703B68A1
:10235000023308221A703B68033314221A703B6858
:10236000043363221A7000E000BF0837BD4680BD09
:1023700080B584B000AF78602A4B1B68BB607B6877
:10238000002B01D1012349E0274A7B681360274BCA
:1023900000221A800023FB601AE0234B1868FB68B8
:1023A0005B0010333B4433F8081C1423022202F074
:1023B0009FFE0346002B08D1FB685B0010333B44B3
:1023C00033F8082C194B1A8005E0FB680133FB60D9
:1023D000FB68012BE1D9154B1B88002B01D1012390
:1023E0001CE0322001F030FB0023FB600EE0104ABD
:1023F000FB6813441B781846FFF7F0FC0346002BDC
:1024000001D001230AE0FB680133FB60FB681B2B52
:10241000EDD900F00FF800F06BF8034618461037BE
:10242000BD4680BD74AE0008EC170020F0170020F8
:10243000CCAE000880B500AF4FF4806200210248A6
:1024400006F068F900BF80BDF417002080B586B0A3
:1024500000AF03463A60FB710B46BB71FB79072B5B
:1024600040D83B68002B3DD0BB799BB21A46520046
:1024700013445B00FB822CE0FB799BB2DB019AB238
:10248000FB8A1344FB813B681B7807F10802114665
:102490001846FFF703FD00233B610CE0FA893B6916
:1024A000134407F108013A690A4411780F4AD154DC
:1024B0003B6901333B613B69042BEFD9FB89053351
:1024C0000A4A0021D1543B6801333B60FB8A063342
:1024D000FB823B681B78002B05D0FB8A0633802BE0
:1024E000CAD900E000BF1837BD4680BDF4170020F0
:1024F00080B582B000AF1D4B1B68002B03D01C4B76
:102500001B88002B01D101232BE00023FB7124E069
:10251000FB79503BDBB21846FFF760FC0346002B0B
:1025200016D10020FFF75AFC0346002B10D11020D3
:10253000FFF754FC0346002B0AD1FB79DB010D4A5F
:10254000134480211846FFF767FC0346002B01D097
:10255000012306E0FB790133FB71FB79072BD7D907
:10256000002318460837BD4680BD00BFEC17002089
:10257000F0170020F417002080B586B002AF786015
:102580000B46FB701346BB70FB783B73BB787B73C9
:1025900007F10C021423009302238021786802F0D3
:1025A00077FA034618461037BD4680BD80B588B01F
:1025B00002AFF8600B467A60FB7207F10B0214233E
:1025C000009301238021F86802F062FA0346FB754C
:1025D000FB7D002B01D0FB7D08E014230093012339
:1025E0007A688021F86802F051FB034618461837D4
:1025F000BD4680BD80B584B000AF78607B68002B9D
:1026000001D1012369E0002200217868FFF7B4FFBF
:102610000346FB73FB7B002B01D0FB7B5DE00422B8
:1026200001217868FFF7A8FF0346FB73FB7B002BB3
:1026300001D0FB7B51E0052001F006FA07F10C0305
:102640001A4600217868FFF7B1FF0346FB73FB7B56
:10265000002B01D0FB7B40E03B7B03F06F03DBB240
:1026600043F01003BB7332211E4800F076F8034696
:102670007B73BB7B1A4600217868FFF77DFF03461A
:10268000FB73FB7B002B01D0FB7B26E07B7B1A4698
:10269000FE217868FFF770FF0346FB73FB7B002B7E
:1026A00001D0FB7B19E03B7B1A4600217868FFF7DD
:1026B00063FF0346FB73FB7B002B01D0FB7B0CE02D
:1026C000052001F0C1F93B7B63F05F03DBB21A46E2
:1026D00000217868FFF750FF034618461037BD46C3
:1026E00080BD00BF00C0A20180B588B002AFF86015
:1026F000084611461A460346FB720B463B811346B9
:10270000FB80FB68002B02D0FB7A0F2B01D9012341
:102710001FE0FB7A9B00DBB20633DBB23B743B89E4
:10272000DBB27B743B891B0A9BB2DBB2BB74FB88B8
:10273000DBB2FB74FB881B0A9BB2DBB23B7507F173
:1027400010021423009305238021F86802F0A0F9F9
:10275000034618461837BD4680BD80B485B000AF2B
:10276000786039607B68002B02D03B68002B01D178
:10277000002319E03B681B03FB60FB685A087B6879
:102780001A44FB68B2FBF3F3BB60BB68012B01D8B2
:10279000002309E0BB68B3F5807F01D9FF2303E084
:1027A000BB68DBB2013BDBB218461437BD465DF8AF
:1027B000047B70472DE9B04F94B000AF78630B46AF
:1027C00087F8333013463B867B6B002B01D1002307
:1027D0008EE03B8E0022BB62FA627B6B00223B6282
:1027E0007A62D7E90A010B463A6A02FB03F27B6A76
:1027F000C7E90A01B96A01FB03F31344BA6A396AEB
:10280000A2FB0121F961BA61FA691344FB61D7E9BE
:102810000623C7E91023C7E9102397F833300133A3
:1028200000229A46934652465B464FF000004FF016
:102830000001590141EAD261500102460B46B2EB58
:102840000A0463EB0B054FF000024FF000036B022C
:1028500043EAD453620214461D4614EB0A0845EBC2
:102860000B094FF000024FF000034FEA891343EACF
:1028700098634FEA8812B2EB0801B96063EB090371
:10288000FB60D7E902120B4613EB0A033B601346C9
:1028900043EB0B037B60D7E90034C7E90E34D7E97B
:1028A0000E014FF000024FF00003420842EAC172ED
:1028B0004B08D7E9100114183C614B417B61D7E903
:1028C0000E23D7E90401FEF797F902460B46C7E944
:1028D0001223D7E91223B2F5805F73F1000305D309
:1028E00040F6FF724FF00003C7E91223B7F84830F3
:1028F00018465037BD46BDE8B08F000080B584B0A3
:1029000000AF0346FB8032210748FFF726FF03464E
:10291000FB73FA88FB7B19460348FFF74BFF03461E
:1029200018461037BD4680BD00C0A20180B485B0F6
:1029300000AF87ED030AC7ED020A87ED011A97ED94
:10294000037AD7ED027AB4EEE77AF1EE10FA01D508
:10295000BB680BE097ED037AD7ED017AB4EEE77A26
:10296000F1EE10FA01DD7B6800E0FB6807EE903ABB
:10297000B0EE670A1437BD465DF8047B704700006F
:1029800080B584B000AF87ED010A9FED161ADFED28
:10299000160A97ED010AFFF7C9FF87ED030AD7ED85
:1029A000037A9FED127A27EE877ADFED0E6AC7EE83
:1029B000267A9FED0F7A77EE877AC7ED027AD7ED08
:1029C000027AB6EE007A77EE877AFCEEE77A17EEB7
:1029D000903A9BB21846FFF791FF0346184610370E
:1029E000BD4680BD00003443000000000000FA44F2
:1029F0000000FA4380B584B000AF87ED010A9FED77
:102A0000221ADFED220A97ED010AFFF78FFF87ED0B
:102A1000020AD7ED027AF5EEC07AF1EE10FA10DB79
:102A2000D7ED027A9FED1A7A27EE877ADFED166AE4
:102A3000C7EE267A9FED177A77EE877AC7ED037A8D
:102A40000FE0D7ED027A9FED127A27EE877ADFED5D
:102A50000E6AC7EE267A9FED0F7A77EE877AC7ED7A
:102A6000037AD7ED037AB6EE007A77EE877AFCEE3A
:102A7000E77A17EE903A9BB21846FFF73FFF0346FE
:102A800018461037BD4680BD0000C8420000C8C2CD
:102A900000007A440080BB4480B483B000AF0023C0
:102AA0007B60104B5B6C0F4A43F4804353640D4BC7
:102AB0005B6C03F480437B607B6800233B60094BC5
:102AC0001B6C084A43F080531364064B1B6C03F0E5
:102AD00080533B603B6800BF0C37BD465DF8047B0C
:102AE000704700BF0038024080B58CB000AF7860FE
:102AF00007F11C0300221A605A609A60DA601A61BA
:102B00007B681B68324A93422CD10023BB61314B56
:102B10001B6B304A43F0020313632E4B1B6B03F015
:102B20000203BB61BB69C023FB6112233B6200232C
:102B30007B620323BB620423FB6207F11C0319467B
:102B4000254801F0C5FC00237B61224B1B6C214A08
:102B500043F4001313641F4B1B6C03F400137B61DD
:102B60007B6931E07B681B681C4A93422CD10023AF
:102B70003B61184B1B6B174A43F002031363154B61
:102B80001B6B03F002033B613B694FF44063FB6145
:102B900012233B6200237B620323BB620423FB629C
:102BA00007F11C0319460C4801F092FC0023FB605E
:102BB000084B1B6C074A43F480031364054B1B6CE2
:102BC00003F48003FB60FB6800BF3037BD4680BD67
:102BD0000054004000380240000402400058004009
:102BE00080B58AB000AF786007F1140300221A6044
:102BF0005A609A60DA601A617B681B68344A9342B3
:102C000061D100233B61334B1B6C324A43F40033E8
:102C10001364304B1B6C03F400333B613B690023AE
:102C2000FB602C4B1B6B2B4A43F001031363294BB6
:102C30001B6B03F00103FB60FB680C237B61022329
:102C4000BB610023FB6103233B6207237B6207F127
:102C500014031946204801F03BFC204B204A1A601F
:102C60001E4B4FF000625A601C4B00229A601B4BB7
:102C70000022DA60194B4FF480621A61174B002270
:102C80005A61164B00229A61144B0022DA61134BF1
:102C900000221A62114B00225A62104801F00AF811
:102CA0000346002B01D0FFF793F87B680B4ADA63E9
:102CB0000A4A7B68936300220021262000F0C3FFAC
:102CC000262000F0DCFF00BF2837BD4680BD00BFD6
:102CD000004400400038024000000240E4020020AE
:102CE0008860024080B400AF00BFFDE780B400AF51
:102CF00000BFFDE780B400AF00BFFDE780B400AFC8
:102D000000BFFDE780B400AF00BFFDE780B400AFB7
:102D100000BFBD465DF8047B704780B400AF00BFC4
:102D2000BD465DF8047B704780B400AF00BFBD4670
:102D30005DF8047B704780B500AF00F065FE00BF12
:102D400080BD000080B500AF024801F04BF900BF24
:102D500080BD00BFE402002080B500AF024803F050
:102D6000A3FC00BF80BD00BF9C02002080B400AF68
:102D700001231846BD465DF8047B704780B582B0DC
:102D800000AF7860396005F03BFD034616221A60FB
:102D90004FF0FF3318460837BD4680BD80B582B07E
:102DA00000AF78604FF0FF317868FFF7E7FF00BFB2
:102DB000FDE780B586B000AFF860B9607A600023A7
:102DC0007B610AE0AFF300800146BB685A1CBA6021
:102DD000CAB21A707B6901337B617A697B689A4257
:102DE000F0DB7B6818461837BD4680BD80B586B0DD
:102DF00000AFF860B9607A6000237B6109E0BB68CE
:102E00005A1CBA601B781846AFF300807B69013307
:102E10007B617A697B689A42F1DB7B6818461837D8
:102E2000BD4680BD80B483B000AF78604FF0FF3303
:102E300018460C37BD465DF8047B704780B483B0FC
:102E400000AF786039603B684FF400525A6000234D
:102E500018460C37BD465DF8047B704780B483B0DC
:102E600000AF7860012318460C37BD465DF8047B3F
:102E7000704780B485B000AFF860B9607A60002315
:102E800018461437BD465DF8047B704780B586B0A0
:102E900000AF7860144A154BD31A7B617B693B61A4
:102EA000134B1B68002B02D1114B124A1A60104BB6
:102EB0001A687B6813443A699A4207D205F0A0FC6D
:102EC00003460C221A604FF0FF3309E0084B1B68E1
:102ED000FB60074B1A687B681344054A1360FB6864
:102EE00018461837BD4680BD0000022000040000CF
:102EF000F41B0020481D002080B400AF064BD3F81F
:102F00008830054A43F47003C2F8883000BFBD46DC
:102F10005DF8047B704700BF00ED00E080B485B031
:102F200000AF87ED030AC7ED020A87ED011A97ED9E
:102F3000037AD7ED027AB4EEE77AF1EE10FA01D512
:102F4000BB680BE097ED037AD7ED017AB4EEE77A30
:102F5000F1EE10FA01DD7B6800E0FB6807EE903AC5
:102F6000B0EE670A1437BD465DF8047B7047000079
:102F700080B582B000AF78607B68002B2AD09FEDCF
:102F8000170AFFF7FDFC03461A467B681A809FED7F
:102F9000140AFFF72FFD03461A467B689A807B6868
:102FA0000022DA809FED0E0AFFF724FD03461A4641
:102FB0007B685A807B685A221A817B6800225A817A
:102FC0007B6800229A817B680022DA817B6800227C
:102FD0001A8200E000BF0837BD4680BD0000B44241
:102FE0000000000080B582B000AF78600B467B80A7
:102FF0007B68002B20D0B7F90230642B02DD6423FC
:103000007B8007E0B7F9023013F1640F02DA4FF664
:103010009C737B807B687A88DA81B7F9023007EE8F
:10302000903AF8EEE77AB0EE670AFFF7E3FC034662
:103030001A467B689A8000E000BF0837BD4680BD15
:1030400080B588B000AF786039607B68002B00F0F5
:10305000CA803B68002B00F0C6807B68D3ED007A05
:10306000B3EE0E1AFBEE0E0AB0EE670AFFF756FF3C
:1030700087ED070AD7ED077A9FED5D7A77EE877ABD
:10308000C7ED067A7B68D3ED017AB7EE001ADFED63
:10309000590AB0EE670AFFF741FFF0EE407A9FED64
:1030A000567A67EE877AC7ED057A7B68D3ED027AA8
:1030B000B7EE001ADFED4F0AB0EE670AFFF72EFFFA
:1030C000F0EE407A9FED4C7A67EE877AC7ED047A8E
:1030D000D7ED047AF5EEC07AF1EE10FA04DDD7ED03
:1030E000047AF1EE677A01E0D7ED057AB3EE047A5F
:1030F00027EE877ADFED406AC7EE267AC7ED037ABE
:1031000097ED060AFFF73CFC03461A463B681A8017
:103110003B680022DA809FED370AFFF76BFC03461D
:103120001A463B685A80D7ED077AF5EEC07AF1EE81
:1031300010FA0BDBD7ED077AB6EE007A77EE877AD6
:10314000FDEEE77A17EE903A1BB20AE0D7ED077A68
:10315000B6EE007A77EEC77AFDEEE77A17EE903A90
:103160001BB23A681381D7ED057AB6EE007A77EE96
:10317000877AFDEEE77A17EE903A1AB23B685A81E9
:10318000D7ED047AB6EE007A77EE877AFDEEE77A2D
:1031900017EE903A1AB23B689A81D7ED037AF5EEB2
:1031A000C07AF1EE10FA0BDBD7ED037AB6EE007AB7
:1031B00077EE877AFDEEE77A17EE903A1BB20AE0D7
:1031C000D7ED037AB6EE007A77EEC77AFDEEE77AAE
:1031D00017EE903A1BB219463868FFF703FF3B68B9
:1031E00000221A8200E000BF2037BD4680BD00BF2C
:1031F0000000B442000000000000C84280B483B068
:1032000000AF78607B68002B08D07B6800221A70C2
:103210007B6800225A607B6800221A8100BF0C374D
:10322000BD465DF8047B704780B582B000AF786022
:103230007868FFF7E3FF00BF0837BD4680BD000098
:1032400080B584B000AFF8600B467A607B81FB6884
:10325000002B01D10023C2E0B7F90A30642B02DD54
:1032600064237B8107E0B7F90A3013F1640F02DAB7
:103270004FF69C737B81FB681B78042B00F2A880BF
:1032800001A252F823F000BF9D320008D732000897
:10329000113300085F330008A5330008B7F90A307E
:1032A000002B06DDFB6801221A70FB687A891A81FF
:1032B00092E0B7F90A30002B09DAFB6802221A7093
:1032C000FB687A685A60FB687A891A8184E0FB6837
:1032D00000221A8180E0B7F90A30002B09DAFB6876
:1032E00002221A70FB687A685A60FB687A891A8130
:1032F00072E0B7F90A30002B06D1FB6800221A7081
:10330000FB6800221A8167E0FB687A891A8163E012
:10331000B7F90A30002B0DDBB7F90A30002BCCBF10
:1033200001230023DBB21A46FB681A70FB687A8916
:103330001A8151E0FB685B687A68D31AB3F5967F0F
:1033400009D3FB6803221A70FB687A685A60FB682D
:1033500000221A8140E0FB687A891A813CE0B7F9C3
:103360000A30002B0DDBB7F90A30002BCCBF01234C
:103370000023DBB21A46FB681A70FB687A891A814F
:103380002AE0FB685B687A68D31AC72B06D9FB680A
:1033900004221A70FB687A891A811DE0FB680022FA
:1033A0001A8119E0B7F90A30002B03DAFB687A8931
:1033B0001A8111E0B7F90A30002BCCBF012300239A
:1033C000DBB21A46FB681A70FB687A891A8103E03F
:1033D000F868FFF729FF00BFFB68B3F9083018460B
:1033E0001037BD4680BD00BF80B483B000AF034638
:1033F000FB71FB79032B04D8FB79032B01D001234C
:1034000000E0002303F00103DBB218460C37BD4691
:103410005DF8047B704780B483B000AF786039609A
:103420007A683B68D31AB3F5967F8CBF01230023DB
:10343000DBB218460C37BD465DF8047B704780B59B
:1034400082B000AF78607B68002B05D041F22C126F
:103450000021786805F05EF900BF0837BD4680BDE1
:1034600080B586B000AFF860B9601346FB80FB689A
:10347000002B00F0D980BB68002B00F0D580002322
:10348000FB82CBE0FB8ABA6813441B787B757B7D9B
:103490000D2B00F0BD807B7D0A2B40F08280FB6805
:1034A00003F5805393F82431002B0CD0FB6803F50F
:1034B0008053002283F82421FB6803F58053002207
:1034C000A3F82021A7E0FB6803F58053B3F820316F
:1034D000002B5FD0FB6803F5805393F82231DBB2F9
:1034E0000133DBB203F00F033B75FB6803F5805338
:1034F00093F82331DBB23A7D9A420BD1FB6803F596
:103500008053D3F828310133FA6802F58052C2F8AB
:1035100028313FE0FB6803F5805393F82231DBB29A
:1035200001331B02FA68D018F968FB6803F5805371
:10353000B3F820311A4605F090F9FB6803F5805383
:1035400093F82231DBB21846FB6803F58053B3F8D9
:1035500020311946FA68030213440B4403F58073C3
:1035600000221A70FB6803F5805393F82231DBB216
:103570001A46FB6803F58053B3F82011FB6802F587
:10358000086223F81210FB6803F580531A463B7D4E
:1035900082F82231FB6803F580530022A3F8202132
:1035A00039E0FB6803F5805393F82431002B31D1C7
:1035B000FB6803F58053B3F82031FE2B17D9FB6865
:1035C00003F58053012283F82421FB6803F580531F
:1035D0000022A3F82021FB6803F58053D3F828319B
:1035E0000133FA6802F58052C2F8283113E0FB6813
:1035F00003F58053B3F820315A1C91B2FA6802F5F2
:103600008052A2F820111946FB687A7D5A5402E0D4
:1036100000BF00E000BFFB8A0133FB82FA8AFB880F
:103620009A42FFF42FAF00E000BF1837BD4680BDBF
:1036300080B586B000AFF860B9607A60FB68002B97
:1036400010D0BB68002B0DD0FB6803F5805393F8B6
:103650002331DAB2FB6803F5805393F82231DBB2F1
:103660009A4201D1002333E0FB6803F5805393F8BD
:103670002331DBB21A46FB6802F5086233F81230D8
:10368000FB82FB8A7A689A4201D8002320E0FB681B
:1036900003F5805393F82331DBB201331B02FA6840
:1036A000D118FB8A01331A46B86805F0D6F8FB68D2
:1036B00003F5805393F82331DBB20133DBB203F01F
:1036C0000F03DAB2FB6803F5805383F8232101234B
:1036D00018461837BD4680BD80B588B000AFF86089
:1036E000B9607A60FB68FB61B868FCF751FDB861AE
:1036F00050E0FA69BB691344FB6102E0FB690133E6
:10370000FB61FB691B780133294A13441B7803F0E2
:103710000803002BF2D1FB691B783A2B00D039E06B
:10372000FB690133FB6102E0FB690133FB61FB696B
:103730001B7801331E4A13441B7803F00803002B47
:10374000F2D105F05DF8034600221A6007F110037C
:103750001946F86904F03CFE87ED050A3B69FA69F1
:103760009A4210D005F04CF803461B68222B0AD071
:10377000D7ED057AF0EEE77A9FED0E7AF4EE477A10
:10378000F1EE10FA01D900230DE07B687A691A6026
:10379000012308E0B968F86904F0D6FFF861FB6915
:1037A000002BA6D1002318462037BD4680BD00BFA0
:1037B000C0B00008FFFF7F7F90B589B000AFF86010
:1037C000B9607A6007F1100300221A605A609A60AB
:1037D0000023FB77FB68002B05D0BB68002B02D0D1
:1037E0007B68002B01D1002360E03249F86804F0C7
:1037F000ABFF0346002B12D007F110031A462D49E8
:10380000F868FFF769FF034683F00103DBB2002B82
:1038100001D000234AE0FB7F43F00103FB772649F8
:10382000F86804F091FF0346002B13D007F1100352
:1038300004331A462049F868FFF74EFF034683F029
:103840000103DBB2002B01D000232FE0FB7F43F00C
:103850000203FB771949F86804F076FF0346002B52
:1038600013D007F1100308331A461449F868FFF71C
:1038700033FF034683F00103DBB2002B01D00023AA
:1038800014E0FB7F43F00403FB77FB7F002B01D1A7
:1038900000230BE0BB681C4607F1100393E8070008
:1038A00084E807007B68FA7F1A70012318462437E2
:1038B000BD4690BD78AE000884AE000890AE00080A
:1038C00090B587B000AF786039603B68002B10D0AE
:1038D00007F10B0207F10C0319467868FFF76CFF3C
:1038E000034683F00103DBB2002B02D1FB7A072BE6
:1038F00001D0002308E03B681C4607F10C0393E865
:10390000070084E80700012318461C37BD4690BD18
:10391000DFF834D0FFF7F0FA0C480D490D4A0023C8
:1039200002E0D458C4500433C4188C42F9D30A4A74
:103930000A4C002301E013600432A242FBD304F0DE
:1039400065FFFDF7A3FF7047000002200000002084
:10395000D8010020D0B20008D8010020481D002066
:10396000FEE7000080B500AF0E4B1B680D4A43F424
:10397000007313600B4B1B680A4A43F480631360A7
:10398000084B1B68074A43F480731360032000F060
:103990004FF90F2000F008F8FFF77EF800231846D3
:1039A00080BD00BF003C024080B582B000AF7860AF
:1039B000124B1A68124B1B7819464FF47A73B3FBFB
:1039C000F1F3B2FBF3F3184600F067F90346002B5E
:1039D00001D001230EE07B680F2B0AD80022796802
:1039E0004FF0FF3000F02FF9064A7B681360002388
:1039F00000E0012318460837BD4680BD04000020C2
:103A00000C0000200800002080B400AF064B1B789B
:103A10001A46064B1B681344044A136000BFBD4698
:103A20005DF8047B704700BF0C000020F81B0020ED
:103A300080B400AF034B1B681846BD465DF8047B9D
:103A4000704700BFF81B002080B584B000AF7860DD
:103A5000FFF7EEFFB8607B68FB60FB68B3F1FF3FE8
:103A600005D00A4B1B781A46FB681344FB6000BF65
:103A7000FFF7DEFF0246BB68D31AFA689A42F7D80E
:103A800000BF00BF1037BD4680BD00BF0C00002046
:103A900080B485B000AF78607B6803F00703FB60FB
:103AA0000C4BDB68BB60BA684FF6FF031340BB608A
:103AB000FB681A02BB68134343F0BF6343F400334F
:103AC000BB60044ABB68D36000BF1437BD465DF8D5
:103AD000047B704700ED00E080B400AF044BDB686E
:103AE0001B0A03F007031846BD465DF8047B7047C8
:103AF00000ED00E080B483B000AF0346FB7197F99E
:103B00000730002B0BDBFB7903F01F02074997F905
:103B100007305B09012000FA02F241F8232000BFC0
:103B20000C37BD465DF8047B704700BF00E100E044
:103B300080B483B000AF03463960FB7197F907305A
:103B4000002B0ADB3B68DAB20C4997F90730120107
:103B5000D2B20B4483F800230AE03B68DAB208498A
:103B6000FB7903F00F03043B1201D2B20B441A7627
:103B700000BF0C37BD465DF8047B704700E100E0F4
:103B800000ED00E080B489B000AFF860B9607A6001
:103B9000FB6803F00703FB61FB69C3F10703042B18
:103BA00028BF0423BB61FB690433062B02D9FB69E0
:103BB000033B00E000237B614FF0FF32BB6902FA58
:103BC00003F3DA43BB681A407B699A404FF0FF3138
:103BD0007B6901FA03F3D9437B680B401343184612
:103BE0002437BD465DF8047B7047000080B582B085
:103BF00000AF78607B68013BB3F1807F01D3012384
:103C00000FE00A4A7B68013B53600F214FF0FF3001
:103C1000FFF78EFF054B00229A60044B07221A60C3
:103C2000002318460837BD4680BD00BF10E000E005
:103C300080B582B000AF78607868FFF729FF00BFD9
:103C40000837BD4680BD80B586B000AF0346B96079
:103C50007A60FB7300237B61FFF73EFF78617A682F
:103C6000B9687869FFF78EFF024697F90F30114661
:103C70001846FFF75DFF00BF1837BD4680BD80B511
:103C800082B000AF0346FB7197F907301846FFF783
:103C900031FF00BF0837BD4680BD80B582B000AFA0
:103CA00078607868FFF7A2FF034618460837BD46DC
:103CB00080BD000080B586B000AF786000237B61D6
:103CC000FFF7B6FE38617B68002B01D1012399E034
:103CD0007B68022283F835207B68002283F8342039
:103CE0007B681B681A687B681B6822F001021A60F7
:103CF0000FE0FFF79DFE02463B69D31A052B08D95A
:103D00007B6820225A657B68032283F835200323D1
:103D100078E07B681B681B6803F00103002BE8D187
:103D20007B681B681B687B617A69384B13407B6139
:103D30007B685A687B689B681A437B68DB681A4318
:103D40007B681B691A437B685B691A437B689B69C4
:103D50001A437B68DB691A437B681B6A13437A69E1
:103D600013437B617B685B6A042B07D17B68DA6A4B
:103D70007B681B6B13437A6913437B617B681B6809
:103D80007A691A607B681B685B697B617B6923F0D9
:103D900007037B617B685B6A7A6913437B617B689D
:103DA0005B6A042B17D17B689B6A7A6913437B613A
:103DB0007B68DB6A002B0ED0786800F00DFB0346B1
:103DC000002B08D07B6840225A657B68012283F86B
:103DD0003520012316E07B681B687A695A61786890
:103DE00000F0C4FA0346FB607B68DB6D3F229A401B
:103DF000FB689A607B6800225A657B68012283F821
:103E00003520002318461837BD4680BD3F8010F08E
:103E100080B586B000AFF860B9607A603B6000237F
:103E2000FB75FB689B6D3B61FB6893F83430012B9D
:103E300001D1022340E0FB68012283F83420FB68B3
:103E400093F83530DBB2012B2FD1FB68022283F8C7
:103E50003520FB6800225A653B687A68B968F868C3
:103E600000F056FAFB68DB6D3F229A403B699A608E
:103E7000FB681B681A68FB681B6842F016021A6030
:103E8000FB681B6C002B07D0FB681B681A68FB687B
:103E90001B6842F008021A60FB681B681A68FB681E
:103EA0001B6842F001021A6005E0FB68002283F8FB
:103EB00034200223FB75FB7D18461837BD4680BDB4
:103EC00080B584B000AF78607B689B6DFB60FFF7C6
:103ED000AFFDB8607B6893F83530DBB2022B08D0B9
:103EE0007B6880225A657B68002283F83420012396
:103EF00052E07B681B681A687B681B6822F0160218
:103F00001A607B681B685A697B681B6822F0800214
:103F10005A617B681B6C002B03D17B689B6C002B68
:103F200007D07B681B681A687B681B6822F0080250
:103F30001A607B681B681A687B681B6822F00102A4
:103F40001A6013E0FFF774FD0246BB68D31A052B15
:103F50000CD97B6820225A657B68032283F83520C0
:103F60007B68002283F83420032315E07B681B68FC
:103F70001B6803F00103002BE4D17B68DB6D3F225B
:103F80009A40FB689A607B68012283F835207B6841
:103F9000002283F83420002318461037BD4680BD28
:103FA00080B483B000AF78607B6893F83530DBB2C3
:103FB000022B04D07B6880225A6501230CE07B68C9
:103FC000052283F835207B681B681A687B681B68AC
:103FD00022F001021A60002318460C37BD465DF836
:103FE000047B704780B586B000AF78600023BB606B
:103FF0008E4B1B688E4AA2FB03239B0A7B617B6866
:104000009B6D3B613B691B68FB607B68DB6D082235
:104010009A40FB681340002B1AD07B681B681B6812
:1040200003F00403002B13D07B681B681A687B68BD
:104030001B6822F004021A607B68DB6D08229A403C
:104040003B699A607B685B6D43F001027B685A654F
:104050007B68DB6D01229A40FB681340002B12D075
:104060007B681B685B6903F08003002B0BD07B68C7
:10407000DB6D01229A403B699A607B685B6D43F07F
:1040800002027B685A657B68DB6D04229A40FB68FC
:104090001340002B12D07B681B681B6803F00203DF
:1040A000002B0BD07B68DB6D04229A403B699A6041
:1040B0007B685B6D43F004027B685A657B68DB6D4F
:1040C00010229A40FB681340002B43D07B681B688A
:1040D0001B6803F00803002B3CD07B68DB6D1022CB
:1040E0009A403B699A607B681B681B6803F48023D5
:1040F000002B18D07B681B681B6803F40023002B7F
:1041000008D17B681B6C002B24D07B681B6C786803
:1041100098471FE07B689B6C002B1BD07B689B6CD7
:104120007868984716E07B681B681B6803F4807307
:10413000002B07D17B681B681A687B681B6822F01C
:1041400008021A607B681B6C002B03D07B681B6C19
:10415000786898477B68DB6D20229A40FB681340A3
:10416000002B00F08F807B681B681B6803F0100336
:10417000002B00F087807B68DB6D20229A403B6932
:104180009A607B6893F83530DBB2052B36D17B68BB
:104190001B681A687B681B6822F016021A607B682D
:1041A0001B685A697B681B6822F080025A617B6831
:1041B0001B6C002B03D17B689B6C002B07D07B68AA
:1041C0001B681A687B681B6822F008021A607B680B
:1041D000DB6D3F229A403B699A607B68012283F83D
:1041E00035207B68002283F834207B681B6D002B10
:1041F0007ED07B681B6D7868984779E07B681B6888
:104200001B6803F48023002B1DD07B681B681B6890
:1042100003F40023002B0DD17B685B6C002B31D0A5
:104220007B685B6C786898472CE000BF0400002036
:10423000B5814E1B7B68DB6B002B23D07B68DB6B6F
:10424000786898471EE07B681B681B6803F48073DE
:10425000002B0FD17B681B681A687B681B6822F0F3
:1042600010021A607B68012283F835207B680022E7
:1042700083F834207B68DB6B002B03D07B68DB6B1F
:10428000786898477B685B6D002B32D07B685B6DEC
:1042900003F00103002B22D07B68052283F8352030
:1042A0007B681B681A687B681B6822F001021A6031
:1042B000BB680133BB607A699A4207D37B681B688D
:1042C0001B6803F00103002BF2D100E000BF7B6804
:1042D000012283F835207B68002283F834207B6834
:1042E000DB6C002B05D07B68DB6C7868984700E0BE
:1042F00000BF1837BD4680BD80B483B000AF786082
:104300007B685B6D18460C37BD465DF8047B7047D3
:1043100080B485B000AFF860B9607A603B60FB683C
:104320001B681A68FB681B6822F480221A60FB680D
:104330001B683A685A60FB689B68402B08D1FB6891
:104340001B687A689A60FB681B68BA68DA6007E0E5
:10435000FB681B68BA689A60FB681B687A68DA6059
:1043600000BF1437BD465DF8047B704780B485B04C
:1043700000AF78607B681B68DBB2103B144AA2FB7D
:1043800003231B09FB60134AFB6813441B781A467E
:104390007B68DA65FB68032B09D97B681B6823F40B
:1043A0007F7323F003031A1D7B689A6507E07B681F
:1043B0001B6823F47F7323F003037A6893657B689B
:1043C0009B6D18461437BD465DF8047B704700BFEF
:1043D000ABAAAAAA00AF000880B485B000AF78608D
:1043E0000023FB737B689B6ABB607B689B69002B27
:1043F0001FD1BB68032B56D801A252F823F000BF8F
:10440000114400082344000811440008A744000890
:104410007B68DB6A03F08073002B46D00123FB73BB
:1044200043E07B68DB6AB3F1C07F40D10123FB73BB
:104430003DE07B689B69B3F5005F21D1BB68032B2E
:1044400037D801A252F823F0594400085F4400080D
:1044500059440008714400080123FB7330E07B6875
:10446000DB6A03F08073002B25D00123FB7322E06D
:104470007B68DB6AB3F1C07F1FD10123FB731CE0B3
:10448000BB68022B03D9BB68032B03D018E00123C0
:10449000FB7315E07B68DB6A03F08073002B0ED0A2
:1044A0000123FB730BE000BF0AE000BF08E000BF80
:1044B00006E000BF04E000BF02E000BF00E000BF74
:1044C000FB7B18461437BD465DF8047B704700BF80
:1044D00080B489B000AF7860396000237B6100232D
:1044E0003B610023BB610023FB616BE10122FB699F
:1044F00002FA03F37B613B681B687A6913403B61F6
:104500003A697B699A4240F05A813B685B6803F0E4
:104510000303012B05D03B685B6803F00303022B08
:1045200030D17B689B68BB61FB695B00032202FAA8
:1045300003F3DB43BA691340BB613B68DA68FB698C
:104540005B0002FA03F3BA691343BB617B68BA6983
:104550009A607B685B68BB610122FB6902FA03F326
:10456000DB43BA691340BB613B685B681B0903F01E
:104570000102FB6902FA03F3BA691343BB617B686A
:10458000BA695A603B685B6803F00303032B17D0DA
:104590007B68DB68BB61FB695B00032202FA03F303
:1045A000DB43BA691340BB613B689A68FB695B00F7
:1045B00002FA03F3BA691343BB617B68BA69DA6034
:1045C0003B685B6803F00303022B23D1FB69DA0825
:1045D0007B68083253F82230BB61FB6903F00703A4
:1045E0009B000F2202FA03F3DB43BA691340BB615D
:1045F0003B681A69FB6903F007039B0002FA03F3A7
:10460000BA691343BB61FB69DA087B680832B96990
:1046100043F822107B681B68BB61FB695B000322C7
:1046200002FA03F3DB43BA691340BB613B685B6882
:1046300003F00302FB695B0002FA03F3BA69134358
:10464000BB617B68BA691A603B685B6803F44033FE
:10465000002B00F0B4800023FB60604B5B6C5F4A72
:1046600043F4804353645D4B5B6C03F48043FB6015
:10467000FB685B4AFB699B08023352F82330BB613D
:10468000FB6903F003039B000F2202FA03F3DB43F1
:10469000BA691340BB617B68524A93422BD07B6856
:1046A000514A934225D07B68504A93421FD07B6881
:1046B0004F4A934219D07B684E4A934213D07B688D
:1046C0004D4A93420DD07B684C4A934207D07B6899
:1046D0004B4A934201D107230EE008230CE0062346
:1046E0000AE0052308E0042306E0032304E0022394
:1046F00002E0012300E00023FA6902F003029200C5
:104700009340BA691343BB613549FB699B08023387
:10471000BA6941F823203B4B9B68BB613B69DB4393
:10472000BA691340BB613B685B6803F48013002BDC
:1047300003D0BA693B691343BB61324ABB699360DA
:10474000304BDB68BB613B69DB43BA691340BB613B
:104750003B685B6803F40013002B03D0BA693B6924
:104760001343BB61274ABB69D360264B5B68BB61BF
:104770003B69DB43BA691340BB613B685B6803F488
:104780000033002B03D0BA693B691343BB611D4A58
:10479000BB6953601B4B1B68BB613B69DB43BA6958
:1047A0001340BB613B685B6803F48033002B03D08C
:1047B000BA693B691343BB61124ABB691360FB6969
:1047C0000133FB61FB690F2B7FF690AE00BF00BF8A
:1047D0002437BD465DF8047B704700BF00380240B7
:1047E000003801400000024000040240000802407E
:1047F000000C024000100240001402400018024069
:10480000001C0240003C014080B584B000AF7860DD
:104810007B68002B01D101232BE17B6893F83D30AD
:10482000DBB2002B06D17B68002283F83C2078683D
:10483000FEF75AF97B68242283F83D207B681B68C9
:104840001A687B681B6822F001021A607B681B688B
:104850001A687B681B6842F400421A607B681B6818
:104860001A687B681B6822F400421A6001F072FD2E
:10487000F8607B685B68814A934207D8FB68804A8E
:10488000934294BF01230023DBB206E0FB687D4A1C
:10489000934294BF01230023DBB2002B01D00123FC
:1048A000E7E0FB68784AA2FB03239B0CBB607B68B4
:1048B0001B685B6823F03F017B681B68BA680A438A
:1048C0005A607B681B681B6A23F03F017B685B684A
:1048D0006A4A934202D8BB68013309E0BB684FF4CF
:1048E000967202FB03F3694AA2FB03239B0901337F
:1048F0007A6812680B4313627B681B68DB6923F4D8
:104900004F4222F0FF027B685B685C498B4219D8FA
:10491000FB68591E7B685B685B00B1FBF3F3591CB5
:1049200040F6FC730B40002B0AD0FB68591E7B68D5
:104930005B685B00B1FBF3F30133C3F30B0351E09E
:1049400004234FE07B689B68002B11D1FB68581E45
:104950007B6859680B465B000B44B0FBF3F30133F3
:10496000C3F30B03002B0CBF01230023DBB212E0C7
:10497000FB68581E7B6859680B469B000B449900E6
:104980000B44B0FBF3F30133C3F30B03002B0CBF59
:1049900001230023DBB2002B01D0012322E07B683E
:1049A0009B68002B0ED1FB68581E7B6859680B462C
:1049B0005B000B44B0FBF3F30133C3F30B0343F48D
:1049C00000430FE0FB68581E7B6859680B469B004C
:1049D0000B4499000B44B0FBF3F30133C3F30B0317
:1049E00043F44043796809681343CB617B681B68D3
:1049F0001B6823F0C0017B68DA697B681B6A1A4375
:104A00007B681B680A431A607B681B689B6823F4F9
:104A1000034323F0FF037A6811697A68D26811436F
:104A20007A6812680B4393607B681B68DB6823F02D
:104A3000FF017B685A697B689B691A437B681B6826
:104A40000A43DA607B681B681A687B681B6842F05F
:104A500001021A607B6800221A647B68202283F8B6
:104A60003D207B6800221A637B68002283F83E2089
:104A7000002318461037BD4680BD00BFA086010048
:104A80007F841E00FF083D0083DE1B43D34D621070
:104A900080B588B002AFF8607A601A460B467B8119
:104AA00013463B81FEF7C4FF7861FB6893F83D3005
:104AB000DBB2202B40F0E0807B69009319230122B8
:104AC0007049F86800F0A0FD0346002B01D00223D6
:104AD000D3E0FB6893F83C30012B01D10223CCE0FA
:104AE000FB68012283F83C20FB681B681B6803F00D
:104AF0000103012B07D0FB681B681A68FB681B6861
:104B000042F001021A60FB681B681A68FB681B68A8
:104B100022F400621A60FB68212283F83D20FB68C2
:104B2000102283F83E20FB6800221A64FB687A6832
:104B30005A62FB683A895A85FB685B8D9AB2FB68BA
:104B40001A85FB68504ADA6279897B693A6AF868A3
:104B500000F00AFC0346002B01D001238DE0002366
:104B60003B61FB681B685B693B61FB681B689B6979
:104B70003B613B6966E07A69396AF86800F05EFE7D
:104B80000346002B0DD0FB681B6C042B07D1FB6880
:104B90001B681A68FB681B6842F400721A600123E4
:104BA0006BE0FB685B6A1A78FB681B681A61FB683C
:104BB0005B6A5A1CFB685A62FB685B8D9BB2013BC7
:104BC0009AB2FB685A85FB681B8D013B9AB2FB6861
:104BD0001A85FB681B685B6903F00403042B1BD177
:104BE000FB681B8D002B17D0FB685B6A1A78FB688B
:104BF0001B681A61FB685B6A5A1CFB685A62FB6897
:104C00005B8D9BB2013B9AB2FB685A85FB681B8D9A
:104C1000013B9AB2FB681A857A69396AF86800F034
:104C200055FE0346002B0DD0FB681B6C042B07D1EF
:104C3000FB681B681A68FB681B6842F400721A6004
:104C400001231AE0FB681B8D002B94D1FB681B68C5
:104C50001A68FB681B6842F400721A60FB68202225
:104C600083F83D20FB68002283F83E20FB68002289
:104C700083F83C20002300E0022318461837BD4685
:104C800080BD00BF020010000000FFFF80B58CB0A7
:104C900002AFF8607A601A460B467B8113463B816F
:104CA000FEF7C6FE7862FB6893F83D30DBB2202B3E
:104CB00040F017827B6A0093192301227C49F8682F
:104CC00000F0A2FC0346002B01D002230AE2FB689D
:104CD00093F83C30012B01D1022303E2FB6801224F
:104CE00083F83C20FB681B681B6803F00103012B61
:104CF00007D0FB681B681A68FB681B6842F001025A
:104D00001A60FB681B681A68FB681B6822F4006263
:104D10001A60FB68222283F83D20FB68102283F88A
:104D20003E20FB6800221A64FB687A685A62FB68BE
:104D30003A895A85FB685B8D9AB2FB681A85FB68D5
:104D40005C4ADA6279897B6A3A6BF86800F08EFB1C
:104D50000346002B01D00123C4E1FB681B8D002B0F
:104D600013D100233B62FB681B685B693B62FB68F5
:104D70001B689B693B623B6AFB681B681A68FB689F
:104D80001B6842F400721A6098E1FB681B8D012BCE
:104D90001BD1FB681B681A68FB681B6822F48062E1
:104DA0001A600023FB61FB681B685B69FB61FB68A1
:104DB0001B689B69FB61FB69FB681B681A68FB68E1
:104DC0001B6842F400721A6078E1FB681B8D022BAD
:104DD0001BD1FB681B681A68FB681B6822F48062A1
:104DE0001A60FB681B681A68FB681B6842F4006263
:104DF0001A600023BB61FB681B685B69BB61FB68D1
:104E00001B689B69BB61BB6958E1FB681B681A683A
:104E1000FB681B6842F480621A6000237B61FB68B8
:104E20001B685B697B61FB681B689B697B617B69B5
:104E300044E1FB681B8D032B00F2F180FB681B8DA6
:104E4000012B23D17A6A396BF86800F087FD03469D
:104E5000002B01D0012345E1FB681B681A69FB6840
:104E60005B6AD2B21A70FB685B6A5A1CFB685A62B2
:104E7000FB681B8D013B9AB2FB681A85FB685B8D52
:104E80009BB2013B9AB2FB685A8517E1FB681B8D08
:104E9000022B4ED17B6A00933B6B00220649F868D7
:104EA00000F0B2FB0346002B08D001231AE100BF3B
:104EB000020010000000FFFF04000100FB681B68F7
:104EC0001A68FB681B6842F400721A60FB681B6872
:104ED0001A69FB685B6AD2B21A70FB685B6A5A1C7B
:104EE000FB685A62FB681B8D013B9AB2FB681A850E
:104EF000FB685B8D9BB2013B9AB2FB685A85FB68ED
:104F00001B681A69FB685B6AD2B21A70FB685B6A3D
:104F10005A1CFB685A62FB681B8D013B9AB2FB6806
:104F20001A85FB685B8D9BB2013B9AB2FB685A8580
:104F3000C4E07B6A00933B6B00226C49F86800F088
:104F400063FB0346002B01D00123CBE0FB681B6809
:104F50001A68FB681B6822F480621A60FB681B6891
:104F60001A69FB685B6AD2B21A70FB685B6A5A1CEA
:104F7000FB685A62FB681B8D013B9AB2FB681A857D
:104F8000FB685B8D9BB2013B9AB2FB685A857B6ADA
:104F900000933B6B00225549F86800F035FB03464F
:104FA000002B01D001239DE0FB681B681A68FB6899
:104FB0001B6842F400721A60FB681B681A69FB6880
:104FC0005B6AD2B21A70FB685B6A5A1CFB685A6251
:104FD000FB681B8D013B9AB2FB681A85FB685B8DF1
:104FE0009BB2013B9AB2FB685A85FB681B681A6941
:104FF000FB685B6AD2B21A70FB685B6A5A1CFB687A
:105000005A62FB681B8D013B9AB2FB681A85FB68EC
:105010005B8D9BB2013B9AB2FB685A854EE07A6A7F
:10502000396BF86800F09AFC0346002B01D001238D
:1050300058E0FB681B681A69FB685B6AD2B21A7099
:10504000FB685B6A5A1CFB685A62FB681B8D013B5C
:105050009AB2FB681A85FB685B8D9BB2013B9AB2E2
:10506000FB685A85FB681B685B6903F00403042B2B
:1050700024D1FB681B8D032B07D1FB681B681A68C2
:10508000FB681B6822F480621A60FB681B681A695F
:10509000FB685B6AD2B21A70FB685B6A5A1CFB68D9
:1050A0005A62FB681B8D013B9AB2FB681A85FB684C
:1050B0005B8D9BB2013B9AB2FB685A85FB681B8DE6
:1050C000002B7FF4B6AEFB68202283F83D20FB68FE
:1050D000002283F83E20FB68002283F83C20002356
:1050E00000E0022318462837BD4680BD04000100B9
:1050F00080B58AB002AFF8607A603B600B467B8176
:10510000FEF796FCF8610023BB61FB6893F83D3025
:10511000DBB2202B40F01181FB690093192301229F
:105120008849F86800F070FA0346002B01D002238A
:1051300004E1FB6893F83C30012B01D10223FDE030
:10514000FB68012283F83C20FB681B681B6803F0A6
:105150000103012B07D0FB681B681A68FB681B68FA
:1051600042F001021A60FB681B681A68FB681B6842
:1051700022F400621A60FB68242283F83D20FB6859
:1051800000221A64FB68704ADA62FB681B681A68BE
:10519000FB681B6842F480721A60FB6900933B68ED
:1051A00000224FF00111F86800F02EFA0346002BA0
:1051B0000DD0FB681B681B6803F48073B3F5807F18
:1051C00003D1FB684FF400721A640323B6E07B89B5
:1051D000DBB21A46FB681B6802F0FE021A61FEF79A
:1051E00027FCF861FB681B685B6903F00203022B74
:1051F0000CBF01230023DBB2FB75FB681B685B69F6
:1052000003F48063B3F5806F0CBF01230023DBB28E
:10521000BB7525E0FEF70CFC0246FB69D31A3A6821
:105220009A4202D33B68002B03D1FB68A02283F88B
:105230003D20FB681B685B6903F00203022B0CBF77
:1052400001230023DBB2FB75FB681B685B6903F479
:105250008063B3F5806F0CBF01230023DBB2BB7505
:10526000FB6893F83D30DBB2A02B05D0FB7D002B13
:1052700002D1BB7D002BCDD0FB68202283F83D20DE
:10528000FB681B685B6903F00203022B29D1FB68F2
:105290001B681A68FB681B6842F400721A600023DE
:1052A0003B61FB681B685B693B61FB681B689B6932
:1052B0003B613B69FB690093192301222149F8688E
:1052C00000F0A2F90346002B01D0012336E0FB6871
:1052D000202283F83D20FB68002283F83C20002335
:1052E0002CE0FB681B681A68FB681B6842F40072BC
:1052F0001A60FB681B686FF480625A61FB69009357
:10530000192301220F49F86800F07EF90346002BAB
:1053100001D0012312E0BB690133BB61BA697B682C
:105320009A42FFF432AFFB68202283F83D20FB68ED
:10533000002283F83C20012300E002231846203796
:10534000BD4680BD020010000000FFFF80B483B0A6
:1053500000AF78607B6893F83D30DBB218460C37BD
:10536000BD465DF8047B704780B588B002AFF86039
:105370007A603B600B467B81FB68DB6A7B617B6903
:10538000082B06D07B69012B03D07B6913F5803F86
:1053900008D1FB681B681A68FB681B6842F48072BE
:1053A0001A600BE0FB681B6B122B07D1FB681B68B4
:1053B0001A68FB681B6842F480721A603B680093AD
:1053C0007B6800224FF00111F86800F01DF90346D8
:1053D000002B0DD0FB681B681B6803F48073B3F5CA
:1053E000807F03D1FB684FF400721A64032335E019
:1053F000FB681B69B3F5804F08D17B89DBB21A4685
:10540000FB681B6802F0FE021A611BE07B89DB115E
:10541000DBB203F00603DBB263F00F03DAB2FB6822
:105420001B681A613B687A680E49F86800F066F9F3
:105430000346002B01D0012310E07B89DAB2FB6820
:105440001B681A613B687A680749F86800F056F9EA
:105450000346002B01D0012300E000231846183733
:10546000BD4680BD080001000200010080B588B083
:1054700002AFF8607A603B600B467B81FB68DB6AB9
:105480007B61FB681B681A68FB681B6842F48062DA
:105490001A607B69082B06D07B69012B03D07B69DE
:1054A00013F5803F08D1FB681B681A68FB681B680E
:1054B00042F480721A600BE0FB681B6B112B07D162
:1054C000FB681B681A68FB681B6842F480721A60EC
:1054D0003B6800937B6800224FF00111F86800F0F0
:1054E00093F80346002B0DD0FB681B681B6803F480
:1054F0008073B3F5807F03D1FB684FF400721A64A8
:10550000032379E0FB681B69B3F5804F08D17B89E1
:10551000DBB243F00103DAB2FB681B681A615FE09B
:105520007B89DB11DBB203F00603DBB263F00F0310
:10553000DAB2FB681B681A613B687A683049F86820
:1055400000F0DCF80346002B01D0012354E07B89F6
:10555000DAB2FB681B681A613B687A682949F86807
:1055600000F0CCF80346002B01D0012344E00023D7
:105570003B61FB681B685B693B61FB681B689B695F
:105580003B613B69FB681B681A68FB681B6842F457
:1055900080721A603B6800937B6800224FF0011113
:1055A000F86800F031F80346002B0DD0FB681B684B
:1055B0001B6803F48073B3F5807F03D1FB684FF45D
:1055C00000721A64032317E07B89DB11DBB203F05E
:1055D0000603DBB263F00E03DAB2FB681B681A61E4
:1055E0003B687A680749F86800F088F80346002BA2
:1055F00001D0012300E0002318461837BD4680BDC6
:10560000080001000200010080B584B000AFF8601E
:10561000B9603B601346FB7148E03B68B3F1FF3F64
:1056200044D0FEF705FA0246BB69D31A3A689A429B
:1056300002D33B68002B39D1BB681B0CDBB2012BBA
:105640000DD1FB681B685B69DA43BB6813409BB2F2
:10565000002B0CBF01230023DBB21A460CE0FB68D1
:105660001B689B69DA43BB6813409BB2002B0CBFDD
:1056700001230023DBB21A46FB799A4216D1FB685C
:1056800000221A63FB68202283F83D20FB68002279
:1056900083F83E20FB681B6C43F02002FB681A6411
:1056A000FB68002283F83C20012323E0BB681B0C2D
:1056B000DBB2012B0DD1FB681B685B69DA43BB6869
:1056C00013409BB2002B0CBF01230023DBB21A4610
:1056D0000CE0FB681B689B69DA43BB6813409BB214
:1056E000002B0CBF01230023DBB21A46FB799A4240
:1056F00093D0002318461037BD4680BD80B584B0D6
:1057000000AFF860B9607A603B6071E0FB681B68CD
:105710005B6903F48063B3F5806F23D1FB681B687A
:105720001A68FB681B6842F400721A60FB681B6809
:105730006FF480625A61FB6800221A63FB682022C2
:1057400083F83D20FB68002283F83E20FB681B6C39
:1057500043F00402FB681A64FB68002283F83C20D3
:10576000012367E07B68B3F1FF3F41D0FEF760F9AA
:1057700002463B68D31A7A689A4202D37B68002BB0
:1057800036D1BB681B0CDBB2012B0CD1FB681B684C
:105790005B69DA43BB6813409BB2002B14BF012343
:1057A0000023DBB20BE0FB681B689B69DA43BB6834
:1057B00013409BB2002B14BF01230023DBB2002B4C
:1057C00016D0FB6800221A63FB68202283F83D2074
:1057D000FB68002283F83E20FB681B6C43F020022C
:1057E000FB681A64FB68002283F83C20012321E057
:1057F000BB681B0CDBB2012B0CD1FB681B685B691F
:10580000DA43BB6813409BB2002B14BF0123002373
:10581000DBB20BE0FB681B689B69DA43BB68134093
:105820009BB2002B14BF01230023DBB2002B7FF4BB
:105830006DAF002318461037BD4680BD80B584B0DB
:1058400000AFF860B9607A6034E0F86800F0E3F81F
:105850000346002B01D0012334E0BB68B3F1FF3FC6
:1058600028D0FEF7E5F802467B68D31ABA689A4258
:1058700002D3BB68002B1DD1FB681B685B6903F07A
:105880008003802B16D0FB6800221A63FB6820225D
:1058900083F83D20FB68002283F83E20FB681B6CE8
:1058A00043F02002FB681A64FB68002283F83C2066
:1058B000012307E0FB681B685B6903F08003802B12
:1058C000C3D1002318461037BD4680BD80B584B0D3
:1058D00000AFF860B9607A6034E0F86800F09BF8D7
:1058E0000346002B01D0012334E0BB68B3F1FF3F36
:1058F00028D0FEF79DF802467B68D31ABA689A4210
:1059000002D3BB68002B1DD1FB681B685B6903F0E9
:105910000403042B16D0FB6800221A63FB682022C4
:1059200083F83D20FB68002283F83E20FB681B6C57
:1059300043F02002FB681A64FB68002283F83C20D5
:10594000012307E0FB681B685B6903F00403042B79
:10595000C3D1002318461037BD4680BD80B584B042
:1059600000AFF860B9607A6049E0FB681B685B696A
:1059700003F01003102B19D1FB681B686FF01002A5
:105980005A61FB6800221A63FB68202283F83D20DD
:10599000FB68002283F83E20FB681A6CFB681A64DF
:1059A000FB68002283F83C20012330E0FEF740F83A
:1059B00002467B68D31ABA689A4202D3BB68002BAE
:1059C0001DD1FB681B685B6903F04003402B16D0B8
:1059D000FB6800221A63FB68202283F83D20FB68E5
:1059E000002283F83E20FB681B6C43F02002FB681A
:1059F0001A64FB68002283F83C20012307E0FB685F
:105A00001B685B6903F04003402BAED100231846AE
:105A10001037BD4680BD80B483B000AF78607B682E
:105A20001B685B6903F48063B3F5806F1BD17B68EF
:105A30001B686FF480625A617B6800221A637B687E
:105A4000202283F83D207B68002283F83E207B687B
:105A50001B6C43F004027B681A647B68002283F8A5
:105A60003C20012300E0002318460C37BD465DF8BA
:105A7000047B704780B586B000AF78607B68002BF0
:105A800001D1012367E27B681B6803F00103002B4F
:105A900075D0884B9B6803F00C03042B0CD0854B0E
:105AA0009B6803F00C03082B12D1824B5B6803F454
:105AB0008003B3F5800F0BD17E4B1B6803F40033DA
:105AC000002B5BD07B685B68002B57D1012342E23F
:105AD0007B685B68B3F5803F06D1764B1B68754ADF
